{
  "contractName": "GradBVA",
  "abi": [
    {
      "anonymous": false,
      "inputs": [
        {
          "indexed": false,
          "internalType": "string",
          "name": "accountAddress",
          "type": "string"
        },
        {
          "indexed": false,
          "internalType": "string",
          "name": "email",
          "type": "string"
        }
      ],
      "name": "aadharCreated",
      "type": "event"
    },
    {
      "anonymous": false,
      "inputs": [
        {
          "indexed": false,
          "internalType": "uint256",
          "name": "id",
          "type": "uint256"
        },
        {
          "indexed": false,
          "internalType": "string",
          "name": "name",
          "type": "string"
        },
        {
          "indexed": false,
          "internalType": "string",
          "name": "age",
          "type": "string"
        },
        {
          "indexed": false,
          "internalType": "string",
          "name": "party",
          "type": "string"
        },
        {
          "indexed": false,
          "internalType": "string",
          "name": "qualification",
          "type": "string"
        },
        {
          "indexed": false,
          "internalType": "uint256",
          "name": "voteCount",
          "type": "uint256"
        }
      ],
      "name": "candidatesCreated",
      "type": "event"
    },
    {
      "anonymous": false,
      "inputs": [
        {
          "indexed": false,
          "internalType": "string",
          "name": "accountAddress",
          "type": "string"
        },
        {
          "indexed": false,
          "internalType": "string",
          "name": "aadhar",
          "type": "string"
        }
      ],
      "name": "emailCreated",
      "type": "event"
    },
    {
      "anonymous": false,
      "inputs": [
        {
          "indexed": false,
          "internalType": "string",
          "name": "username",
          "type": "string"
        },
        {
          "indexed": false,
          "internalType": "string",
          "name": "email",
          "type": "string"
        },
        {
          "indexed": false,
          "internalType": "string",
          "name": "password",
          "type": "string"
        },
        {
          "indexed": false,
          "internalType": "bool",
          "name": "isVoted",
          "type": "bool"
        },
        {
          "indexed": false,
          "internalType": "string",
          "name": "aadhar",
          "type": "string"
        }
      ],
      "name": "userCreated",
      "type": "event"
    },
    {
      "inputs": [
        {
          "internalType": "string",
          "name": "",
          "type": "string"
        }
      ],
      "name": "aadharList",
      "outputs": [
        {
          "internalType": "string",
          "name": "accountAddress",
          "type": "string"
        },
        {
          "internalType": "string",
          "name": "email",
          "type": "string"
        }
      ],
      "stateMutability": "view",
      "type": "function"
    },
    {
      "inputs": [],
      "name": "candidatesCount",
      "outputs": [
        {
          "internalType": "uint256",
          "name": "",
          "type": "uint256"
        }
      ],
      "stateMutability": "view",
      "type": "function"
    },
    {
      "inputs": [
        {
          "internalType": "uint256",
          "name": "",
          "type": "uint256"
        }
      ],
      "name": "candidatesList",
      "outputs": [
        {
          "internalType": "uint256",
          "name": "id",
          "type": "uint256"
        },
        {
          "internalType": "string",
          "name": "name",
          "type": "string"
        },
        {
          "internalType": "string",
          "name": "age",
          "type": "string"
        },
        {
          "internalType": "string",
          "name": "party",
          "type": "string"
        },
        {
          "internalType": "string",
          "name": "qualification",
          "type": "string"
        },
        {
          "internalType": "uint256",
          "name": "voteCount",
          "type": "uint256"
        }
      ],
      "stateMutability": "view",
      "type": "function"
    },
    {
      "inputs": [],
      "name": "changeState",
      "outputs": [
        {
          "internalType": "string",
          "name": "",
          "type": "string"
        }
      ],
      "stateMutability": "view",
      "type": "function"
    },
    {
      "inputs": [
        {
          "internalType": "string",
          "name": "",
          "type": "string"
        }
      ],
      "name": "emailList",
      "outputs": [
        {
          "internalType": "string",
          "name": "accountAddress",
          "type": "string"
        },
        {
          "internalType": "string",
          "name": "aadhar",
          "type": "string"
        }
      ],
      "stateMutability": "view",
      "type": "function"
    },
    {
      "inputs": [],
      "name": "userCount",
      "outputs": [
        {
          "internalType": "uint256",
          "name": "",
          "type": "uint256"
        }
      ],
      "stateMutability": "view",
      "type": "function"
    },
    {
      "inputs": [
        {
          "internalType": "string",
          "name": "",
          "type": "string"
        }
      ],
      "name": "usersList",
      "outputs": [
        {
          "internalType": "string",
          "name": "username",
          "type": "string"
        },
        {
          "internalType": "string",
          "name": "email",
          "type": "string"
        },
        {
          "internalType": "string",
          "name": "password",
          "type": "string"
        },
        {
          "internalType": "bool",
          "name": "isVoted",
          "type": "bool"
        },
        {
          "internalType": "string",
          "name": "aadhar",
          "type": "string"
        }
      ],
      "stateMutability": "view",
      "type": "function"
    },
    {
      "inputs": [
        {
          "internalType": "string",
          "name": "_username",
          "type": "string"
        },
        {
          "internalType": "string",
          "name": "_email",
          "type": "string"
        },
        {
          "internalType": "string",
          "name": "_password",
          "type": "string"
        },
        {
          "internalType": "string",
          "name": "_aadhar",
          "type": "string"
        }
      ],
      "name": "createUser",
      "outputs": [],
      "stateMutability": "nonpayable",
      "type": "function"
    },
    {
      "inputs": [
        {
          "internalType": "string",
          "name": "_name",
          "type": "string"
        },
        {
          "internalType": "string",
          "name": "_age",
          "type": "string"
        },
        {
          "internalType": "string",
          "name": "_party",
          "type": "string"
        },
        {
          "internalType": "string",
          "name": "_qualification",
          "type": "string"
        }
      ],
      "name": "createCandidate",
      "outputs": [],
      "stateMutability": "nonpayable",
      "type": "function"
    },
    {
      "inputs": [
        {
          "internalType": "uint256",
          "name": "id",
          "type": "uint256"
        },
        {
          "internalType": "string",
          "name": "_email",
          "type": "string"
        }
      ],
      "name": "addVote",
      "outputs": [],
      "stateMutability": "nonpayable",
      "type": "function"
    },
    {
      "inputs": [
        {
          "internalType": "string",
          "name": "_name",
          "type": "string"
        }
      ],
      "name": "changeStates",
      "outputs": [],
      "stateMutability": "nonpayable",
      "type": "function"
    },
    {
      "inputs": [
        {
          "internalType": "string",
          "name": "_email",
          "type": "string"
        }
      ],
      "name": "appendIsVote",
      "outputs": [],
      "stateMutability": "nonpayable",
      "type": "function"
    },
    {
      "inputs": [
        {
          "internalType": "string",
          "name": "_aadharNum",
          "type": "string"
        },
        {
          "internalType": "string",
          "name": "_accountAddress",
          "type": "string"
        },
        {
          "internalType": "string",
          "name": "_email",
          "type": "string"
        }
      ],
      "name": "createAdharEmail",
      "outputs": [],
      "stateMutability": "nonpayable",
      "type": "function"
    }
  ],
  "bytecode": "0x60806040525f80555f60015560405180602001604052805f815250600290816200002a9190620002a2565b5034801562000037575f80fd5b5062000386565b5f81519050919050565b7f4e487b71000000000000000000000000000000000000000000000000000000005f52604160045260245ffd5b7f4e487b71000000000000000000000000000000000000000000000000000000005f52602260045260245ffd5b5f6002820490506001821680620000ba57607f821691505b602082108103620000d057620000cf62000075565b5b50919050565b5f819050815f5260205f209050919050565b5f6020601f8301049050919050565b5f82821b905092915050565b5f60088302620001347fffffffffffffffffffffffffffffffffffffffffffffffffffffffffffffffff82620000f7565b620001408683620000f7565b95508019841693508086168417925050509392505050565b5f819050919050565b5f819050919050565b5f6200018a620001846200017e8462000158565b62000161565b62000158565b9050919050565b5f819050919050565b620001a5836200016a565b620001bd620001b48262000191565b84845462000103565b825550505050565b5f90565b620001d3620001c5565b620001e08184846200019a565b505050565b5b818110156200020757620001fb5f82620001c9565b600181019050620001e6565b5050565b601f82111562000256576200022081620000d6565b6200022b84620000e8565b810160208510156200023b578190505b620002536200024a85620000e8565b830182620001e5565b50505b505050565b5f82821c905092915050565b5f620002785f19846008026200025b565b1980831691505092915050565b5f62000292838362000267565b9150826002028217905092915050565b620002ad826200003e565b67ffffffffffffffff811115620002c957620002c862000048565b5b620002d58254620000a2565b620002e28282856200020b565b5f60209050601f83116001811462000318575f841562000303578287015190505b6200030f858262000285565b8655506200037e565b601f1984166200032886620000d6565b5f5b8281101562000351578489015182556001820191506020850194506020810190506200032a565b868310156200037157848901516200036d601f89168262000267565b8355505b6001600288020188555050505b505050505050565b61185780620003945f395ff3fe608060405234801561000f575f80fd5b50600436106100cd575f3560e01c80634cbce6ac1161008a5780638412e667116100645780638412e667146102135780638fb7ec6514610231578063df2d5ec71461024d578063f9edfa0d14610282576100cd565b80634cbce6ac146101a75780636f7fcddb146101db57806378c4c488146101f7576100cd565b806301a8445b146100d157806307973ccf146101025780630f9181e1146101205780630fcaac1b146101515780632d35a8a21461016d5780633541a13d1461018b575b5f80fd5b6100eb60048036038101906100e69190610f70565b61029e565b6040516100f9929190611031565b60405180910390f35b61010a6103e2565b604051610117919061107e565b60405180910390f35b61013a60048036038101906101359190610f70565b6103e8565b604051610148929190611031565b60405180910390f35b61016b600480360381019061016691906110c1565b61052c565b005b610175610592565b604051610182919061107e565b60405180910390f35b6101a560048036038101906101a0919061111b565b610597565b005b6101c160048036038101906101bc9190610f70565b610664565b6040516101d29594939291906111d9565b60405180910390f35b6101f560048036038101906101f09190611246565b6108d2565b005b610211600480360381019061020c9190610f70565b6109ed565b005b61021b610a29565b604051610228919061131a565b60405180910390f35b61024b60048036038101906102469190611246565b610ab5565b005b6102676004803603810190610262919061133a565b610bc0565b60405161027996959493929190611365565b60405180910390f35b61029c60048036038101906102979190610f70565b610e10565b005b6005818051602081018201805184825260208301602085012081835280955050505050505f91509050805f0180546102d59061140d565b80601f01602080910402602001604051908101604052809291908181526020018280546103019061140d565b801561034c5780601f106103235761010080835404028352916020019161034c565b820191905f5260205f20905b81548152906001019060200180831161032f57829003601f168201915b5050505050908060010180546103619061140d565b80601f016020809104026020016040519081016040528092919081815260200182805461038d9061140d565b80156103d85780601f106103af576101008083540402835291602001916103d8565b820191905f5260205f20905b8154815290600101906020018083116103bb57829003601f168201915b5050505050905082565b60015481565b6004818051602081018201805184825260208301602085012081835280955050505050505f91509050805f01805461041f9061140d565b80601f016020809104026020016040519081016040528092919081815260200182805461044b9061140d565b80156104965780601f1061046d57610100808354040283529160200191610496565b820191905f5260205f20905b81548152906001019060200180831161047957829003601f168201915b5050505050908060010180546104ab9061140d565b80601f01602080910402602001604051908101604052809291908181526020018280546104d79061140d565b80156105225780601f106104f957610100808354040283529160200191610522565b820191905f5260205f20905b81548152906001019060200180831161050557829003601f168201915b5050505050905082565b60035f8381526020019081526020015f206005015f8154809291906105509061146a565b9190505550600160068260405161056791906114eb565b90815260200160405180910390206003015f6101000a81548160ff0219169083151502179055505050565b5f5481565b6040518060400160405280838152602001828152506005846040516105bc91906114eb565b90815260200160405180910390205f820151815f0190816105dd919061169e565b5060208201518160010190816105f3919061169e565b509050508260068260405161060891906114eb565b90815260200160405180910390206004019081610625919061169e565b507f67a61a7d93b3f5c541318aa6f015f8879eb4975e7a1c7534d29451d68d7468d88282604051610657929190611031565b60405180910390a1505050565b6006818051602081018201805184825260208301602085012081835280955050505050505f91509050805f01805461069b9061140d565b80601f01602080910402602001604051908101604052809291908181526020018280546106c79061140d565b80156107125780601f106106e957610100808354040283529160200191610712565b820191905f5260205f20905b8154815290600101906020018083116106f557829003601f168201915b5050505050908060010180546107279061140d565b80601f01602080910402602001604051908101604052809291908181526020018280546107539061140d565b801561079e5780601f106107755761010080835404028352916020019161079e565b820191905f5260205f20905b81548152906001019060200180831161078157829003601f168201915b5050505050908060020180546107b39061140d565b80601f01602080910402602001604051908101604052809291908181526020018280546107df9061140d565b801561082a5780601f106108015761010080835404028352916020019161082a565b820191905f5260205f20905b81548152906001019060200180831161080d57829003601f168201915b505050505090806003015f9054906101000a900460ff16908060040180546108519061140d565b80601f016020809104026020016040519081016040528092919081815260200182805461087d9061140d565b80156108c85780601f1061089f576101008083540402835291602001916108c8565b820191905f5260205f20905b8154815290600101906020018083116108ab57829003601f168201915b5050505050905085565b60015f8154809291906108e49061146a565b91905055506040518060a001604052808581526020018481526020018381526020015f151581526020018281525060068460405161092291906114eb565b90815260200160405180910390205f820151815f019081610943919061169e565b506020820151816001019081610959919061169e565b50604082015181600201908161096f919061169e565b506060820151816003015f6101000a81548160ff02191690831515021790555060808201518160040190816109a4919061169e565b509050507f5052cedc2aa0ebaa8524354a1355c5e334e34e70f11b9a1a3add36347dd63a6b8484845f856040516109df9594939291906111d9565b60405180910390a150505050565b60016006826040516109ff91906114eb565b90815260200160405180910390206003015f6101000a81548160ff02191690831515021790555050565b60028054610a369061140d565b80601f0160208091040260200160405190810160405280929190818152602001828054610a629061140d565b8015610aad5780601f10610a8457610100808354040283529160200191610aad565b820191905f5260205f20905b815481529060010190602001808311610a9057829003601f168201915b505050505081565b5f80815480929190610ac69061146a565b91905055506040518060c001604052805f5481526020018581526020018481526020018381526020018281526020015f81525060035f805481526020019081526020015f205f820151815f01556020820151816001019081610b28919061169e565b506040820151816002019081610b3e919061169e565b506060820151816003019081610b54919061169e565b506080820151816004019081610b6a919061169e565b5060a082015181600501559050507f4ef8a94ac0a5bc18bb327ca4c6fc41a39510862b179a676672623d241a0d2e205f54858585855f604051610bb2969594939291906117a6565b60405180910390a150505050565b6003602052805f5260405f205f91509050805f015490806001018054610be59061140d565b80601f0160208091040260200160405190810160405280929190818152602001828054610c119061140d565b8015610c5c5780601f10610c3357610100808354040283529160200191610c5c565b820191905f5260205f20905b815481529060010190602001808311610c3f57829003601f168201915b505050505090806002018054610c719061140d565b80601f0160208091040260200160405190810160405280929190818152602001828054610c9d9061140d565b8015610ce85780601f10610cbf57610100808354040283529160200191610ce8565b820191905f5260205f20905b815481529060010190602001808311610ccb57829003601f168201915b505050505090806003018054610cfd9061140d565b80601f0160208091040260200160405190810160405280929190818152602001828054610d299061140d565b8015610d745780601f10610d4b57610100808354040283529160200191610d74565b820191905f5260205f20905b815481529060010190602001808311610d5757829003601f168201915b505050505090806004018054610d899061140d565b80601f0160208091040260200160405190810160405280929190818152602001828054610db59061140d565b8015610e005780601f10610dd757610100808354040283529160200191610e00565b820191905f5260205f20905b815481529060010190602001808311610de357829003601f168201915b5050505050908060050154905086565b8060029081610e1f919061169e565b5050565b5f604051905090565b5f80fd5b5f80fd5b5f80fd5b5f80fd5b5f601f19601f8301169050919050565b7f4e487b71000000000000000000000000000000000000000000000000000000005f52604160045260245ffd5b610e8282610e3c565b810181811067ffffffffffffffff82111715610ea157610ea0610e4c565b5b80604052505050565b5f610eb3610e23565b9050610ebf8282610e79565b919050565b5f67ffffffffffffffff821115610ede57610edd610e4c565b5b610ee782610e3c565b9050602081019050919050565b828183375f83830152505050565b5f610f14610f0f84610ec4565b610eaa565b905082815260208101848484011115610f3057610f2f610e38565b5b610f3b848285610ef4565b509392505050565b5f82601f830112610f5757610f56610e34565b5b8135610f67848260208601610f02565b91505092915050565b5f60208284031215610f8557610f84610e2c565b5b5f82013567ffffffffffffffff811115610fa257610fa1610e30565b5b610fae84828501610f43565b91505092915050565b5f81519050919050565b5f82825260208201905092915050565b5f5b83811015610fee578082015181840152602081019050610fd3565b5f8484015250505050565b5f61100382610fb7565b61100d8185610fc1565b935061101d818560208601610fd1565b61102681610e3c565b840191505092915050565b5f6040820190508181035f8301526110498185610ff9565b9050818103602083015261105d8184610ff9565b90509392505050565b5f819050919050565b61107881611066565b82525050565b5f6020820190506110915f83018461106f565b92915050565b6110a081611066565b81146110aa575f80fd5b50565b5f813590506110bb81611097565b92915050565b5f80604083850312156110d7576110d6610e2c565b5b5f6110e4858286016110ad565b925050602083013567ffffffffffffffff81111561110557611104610e30565b5b61111185828601610f43565b9150509250929050565b5f805f6060848603121561113257611131610e2c565b5b5f84013567ffffffffffffffff81111561114f5761114e610e30565b5b61115b86828701610f43565b935050602084013567ffffffffffffffff81111561117c5761117b610e30565b5b61118886828701610f43565b925050604084013567ffffffffffffffff8111156111a9576111a8610e30565b5b6111b586828701610f43565b9150509250925092565b5f8115159050919050565b6111d3816111bf565b82525050565b5f60a0820190508181035f8301526111f18188610ff9565b905081810360208301526112058187610ff9565b905081810360408301526112198186610ff9565b905061122860608301856111ca565b818103608083015261123a8184610ff9565b90509695505050505050565b5f805f806080858703121561125e5761125d610e2c565b5b5f85013567ffffffffffffffff81111561127b5761127a610e30565b5b61128787828801610f43565b945050602085013567ffffffffffffffff8111156112a8576112a7610e30565b5b6112b487828801610f43565b935050604085013567ffffffffffffffff8111156112d5576112d4610e30565b5b6112e187828801610f43565b925050606085013567ffffffffffffffff81111561130257611301610e30565b5b61130e87828801610f43565b91505092959194509250565b5f6020820190508181035f8301526113328184610ff9565b905092915050565b5f6020828403121561134f5761134e610e2c565b5b5f61135c848285016110ad565b91505092915050565b5f60c0820190506113785f83018961106f565b818103602083015261138a8188610ff9565b9050818103604083015261139e8187610ff9565b905081810360608301526113b28186610ff9565b905081810360808301526113c68185610ff9565b90506113d560a083018461106f565b979650505050505050565b7f4e487b71000000000000000000000000000000000000000000000000000000005f52602260045260245ffd5b5f600282049050600182168061142457607f821691505b602082108103611437576114366113e0565b5b50919050565b7f4e487b71000000000000000000000000000000000000000000000000000000005f52601160045260245ffd5b5f61147482611066565b91507fffffffffffffffffffffffffffffffffffffffffffffffffffffffffffffffff82036114a6576114a561143d565b5b600182019050919050565b5f81905092915050565b5f6114c582610fb7565b6114cf81856114b1565b93506114df818560208601610fd1565b80840191505092915050565b5f6114f682846114bb565b915081905092915050565b5f819050815f5260205f209050919050565b5f6020601f8301049050919050565b5f82821b905092915050565b5f6008830261155d7fffffffffffffffffffffffffffffffffffffffffffffffffffffffffffffffff82611522565b6115678683611522565b95508019841693508086168417925050509392505050565b5f819050919050565b5f6115a261159d61159884611066565b61157f565b611066565b9050919050565b5f819050919050565b6115bb83611588565b6115cf6115c7826115a9565b84845461152e565b825550505050565b5f90565b6115e36115d7565b6115ee8184846115b2565b505050565b5b81811015611611576116065f826115db565b6001810190506115f4565b5050565b601f8211156116565761162781611501565b61163084611513565b8101602085101561163f578190505b61165361164b85611513565b8301826115f3565b50505b505050565b5f82821c905092915050565b5f6116765f198460080261165b565b1980831691505092915050565b5f61168e8383611667565b9150826002028217905092915050565b6116a782610fb7565b67ffffffffffffffff8111156116c0576116bf610e4c565b5b6116ca825461140d565b6116d5828285611615565b5f60209050601f831160018114611706575f84156116f4578287015190505b6116fe8582611683565b865550611765565b601f19841661171486611501565b5f5b8281101561173b57848901518255600182019150602085019450602081019050611716565b868310156117585784890151611754601f891682611667565b8355505b6001600288020188555050505b505050505050565b5f819050919050565b5f61179061178b6117868461176d565b61157f565b611066565b9050919050565b6117a081611776565b82525050565b5f60c0820190506117b95f83018961106f565b81810360208301526117cb8188610ff9565b905081810360408301526117df8187610ff9565b905081810360608301526117f38186610ff9565b905081810360808301526118078185610ff9565b905061181660a0830184611797565b97965050505050505056fea264697066735822122059932f32a5a5e8fbaa1c096be2cec3ee00f34e6b9a46ae865c13b5f04e1218a264736f6c63430008150033",
  "immutableReferences": {},
  "source": "// SPDX-License-Identifier: MIT\npragma solidity >=0.4.22 <0.9.0;\ncontract GradBVA{\n    uint public candidatesCount=0;\n    uint public userCount=0;\n    string public changeState=\"\";\n mapping(uint => candidates) public candidatesList;\n mapping(string => email) public emailList;\n mapping(string => aadhar) public aadharList;\n mapping(string => user) public usersList;\n\n struct user{\n      string username;\n      string email;\n      string password;\n      bool isVoted;\n      string aadhar;\n      \n  }\n struct email{\n      string accountAddress;\n      string aadhar;\n  }\n struct aadhar{\n      string accountAddress;\n      string email;\n  }\n \n  struct candidates{\n      uint id;\n      string name;\n      string age;\n      string party;\n      string qualification;\n      uint voteCount;\n  }\n\n  // events\n\n   event userCreated(\n      string username,\n      string email,\n      string password,\n      bool isVoted,\n      string aadhar\n      \n    );\n\n   event emailCreated(\n      string accountAddress,\n      string aadhar\n    );\n   event aadharCreated(\n      string accountAddress,\n      string email\n    );\n   event candidatesCreated(\n      uint id,\n      string name,\n      string age,\n      string party,\n      string qualification,\n      uint voteCount\n    );\n\n   \n    function createUser(string memory _username,string memory _email,string memory _password,string memory _aadhar ) public {\n      \n        userCount++;\n\n        usersList[_email] = user(_username,_email,_password,false,_aadhar);\n      \n        emit userCreated(_username,_email,_password,false,_aadhar);\n    }\n\n  function createCandidate(string memory _name,string memory _age,string memory _party,string memory _qualification) public {\n      \n        candidatesCount++;\n       \n        candidatesList[candidatesCount] = candidates(candidatesCount,_name,_age,_party,_qualification,0);\n      \n        emit candidatesCreated(candidatesCount,_name,_age,_party,_qualification,0);\n    }\n  function addVote(uint id,string memory _email) public {\n        \n        candidatesList[id].voteCount++;\n        usersList[_email].isVoted=true;\n      \n    }\n  function changeStates(string memory _name) public {\n\n        changeState=_name;\n    }\n\n    function appendIsVote(string memory _email) public {\n\n         usersList[_email].isVoted=true;\n    }\n\n  function createAdharEmail(string memory _aadharNum, string memory _accountAddress,string memory _email) public {\n        aadharList[_aadharNum] = aadhar(_accountAddress,_email);\n\n        usersList[_email].aadhar=_aadharNum;\n\n        emit aadharCreated(_accountAddress, _email);\n  }\n  \n\n}",
  "sourcePath": "C:\\Users\\rajat\\Documents\\GitHub\\blockchain-voting-application\\src\\contracts\\GradBVA.sol",
  "compiler": {
    "name": "solc",
    "version": "0.8.21+commit.d9974bed.Emscripten.clang"
  },
  "schemaVersion": "3.4.16",
  "updatedAt": "2025-03-26T12:39:19.930Z",
  "devdoc": {
    "kind": "dev",
    "methods": {},
    "version": 1
  },
  "userdoc": {
    "kind": "user",
    "methods": {},
    "version": 1
  }
}